{
  "transactions": [
    {
      "hash": "0x6e9020bbe9f3bdbe008d29eb8c18b316f2704c5e6d47d118c2ba7ce806b0a8ab",
      "transactionType": "CALL",
      "contractName": null,
      "contractAddress": "0x779877A7B0D9E8603169DdbD7836e478b4624789",
      "function": "transferAndCall(address,uint256,bytes)",
      "arguments": [
        "0x8103B0A8A00be2DDC778e6e7eaa21791Cd364625",
        "3000000000000000000",
        "0x0000000000000000000000000000000000000000000000000000000000002af2"
      ],
      "transaction": {
        "type": "0x02",
        "from": "0x2b511131737b9100385421527fffb20c373fa6b4",
        "to": "0x779877a7b0d9e8603169ddbd7836e478b4624789",
        "gas": "0x1b43f",
        "value": "0x0",
        "data": "0x4000aea00000000000000000000000008103b0a8a00be2ddc778e6e7eaa21791cd36462500000000000000000000000000000000000000000000000029a2241af62c0000000000000000000000000000000000000000000000000000000000000000006000000000000000000000000000000000000000000000000000000000000000200000000000000000000000000000000000000000000000000000000000002af2",
        "nonce": "0x12",
        "accessList": []
      },
      "additionalContracts": [],
      "isFixedGasLimit": false
    }
  ],
  "receipts": [
    {
      "transactionHash": "0x6e9020bbe9f3bdbe008d29eb8c18b316f2704c5e6d47d118c2ba7ce806b0a8ab",
      "transactionIndex": "0x9",
      "blockHash": "0x8f05494391a76cd2357687fd661d51cb18baa16c48c6d8868e30405cffd26ddf",
      "blockNumber": "0x56b7f3",
      "from": "0x2B511131737b9100385421527FFfb20C373fa6b4",
      "to": "0x779877A7B0D9E8603169DdbD7836e478b4624789",
      "cumulativeGasUsed": "0x75f04",
      "gasUsed": "0x12a4a",
      "contractAddress": null,
      "logs": [
        {
          "address": "0x779877A7B0D9E8603169DdbD7836e478b4624789",
          "topics": [
            "0xddf252ad1be2c89b69c2b068fc378daa952ba7f163c4a11628f55a4df523b3ef",
            "0x0000000000000000000000002b511131737b9100385421527fffb20c373fa6b4",
            "0x0000000000000000000000008103b0a8a00be2ddc778e6e7eaa21791cd364625"
          ],
          "data": "0x00000000000000000000000000000000000000000000000029a2241af62c0000",
          "blockHash": "0x8f05494391a76cd2357687fd661d51cb18baa16c48c6d8868e30405cffd26ddf",
          "blockNumber": "0x56b7f3",
          "transactionHash": "0x6e9020bbe9f3bdbe008d29eb8c18b316f2704c5e6d47d118c2ba7ce806b0a8ab",
          "transactionIndex": "0x9",
          "logIndex": "0x7",
          "removed": false
        },
        {
          "address": "0x779877A7B0D9E8603169DdbD7836e478b4624789",
          "topics": [
            "0xe19260aff97b920c7df27010903aeb9c8d2be5d310a2c67824cf3f15396e4c16",
            "0x0000000000000000000000002b511131737b9100385421527fffb20c373fa6b4",
            "0x0000000000000000000000008103b0a8a00be2ddc778e6e7eaa21791cd364625"
          ],
          "data": "0x00000000000000000000000000000000000000000000000029a2241af62c0000000000000000000000000000000000000000000000000000000000000000004000000000000000000000000000000000000000000000000000000000000000200000000000000000000000000000000000000000000000000000000000002af2",
          "blockHash": "0x8f05494391a76cd2357687fd661d51cb18baa16c48c6d8868e30405cffd26ddf",
          "blockNumber": "0x56b7f3",
          "transactionHash": "0x6e9020bbe9f3bdbe008d29eb8c18b316f2704c5e6d47d118c2ba7ce806b0a8ab",
          "transactionIndex": "0x9",
          "logIndex": "0x8",
          "removed": false
        },
        {
          "address": "0x8103B0A8A00be2DDC778e6e7eaa21791Cd364625",
          "topics": [
            "0xd39ec07f4e209f627a4c427971473820dc129761ba28de8906bd56f57101d4f8",
            "0x0000000000000000000000000000000000000000000000000000000000002af2"
          ],
          "data": "0x000000000000000000000000000000000000000000000000000000000000000000000000000000000000000000000000000000000000000029a2241af62c0000",
          "blockHash": "0x8f05494391a76cd2357687fd661d51cb18baa16c48c6d8868e30405cffd26ddf",
          "blockNumber": "0x56b7f3",
          "transactionHash": "0x6e9020bbe9f3bdbe008d29eb8c18b316f2704c5e6d47d118c2ba7ce806b0a8ab",
          "transactionIndex": "0x9",
          "logIndex": "0x9",
          "removed": false
        }
      ],
      "status": "0x1",
      "logsBloom": "0x0000001400000000000000000000000000000000000000020000000002000000000000000000800000000000000000000000000000000000000000000000000000000000000000000000000800000000000000000000000000002000000000000000000000000000000000000000000000000000400000000000001000000000000000000c000020040000000000800010000020000000000000000000000000000000000000000000000000000000000000000000000000000400000000000000000002000000000800001000000000800000000000000100000400000000000000000000000000000000000200000000000000000000000000000000000000",
      "type": "0x2",
      "effectiveGasPrice": "0xb30453e5"
    }
  ],
  "libraries": [],
  "pending": [],
  "returns": {},
  "timestamp": 1712940307,
  "chain": 11155111,
  "commit": "4b0ea88"
}