{
  "transactions": [
    {
      "hash": "0xe5b22bf634a4ef544661ce3c5b7443066d768c27312cff196bc7d18be8586808",
      "transactionType": "CALL",
      "contractName": null,
      "contractAddress": "0x779877A7B0D9E8603169DdbD7836e478b4624789",
      "function": "transferAndCall(address,uint256,bytes)",
      "arguments": [
        "0x8103B0A8A00be2DDC778e6e7eaa21791Cd364625",
        "3000000000000000000",
        "0x0000000000000000000000000000000000000000000000000000000000002af2"
      ],
      "transaction": {
        "type": "0x02",
        "from": "0x2b511131737b9100385421527fffb20c373fa6b4",
        "to": "0x779877a7b0d9e8603169ddbd7836e478b4624789",
        "gas": "0x13fbe",
        "value": "0x0",
        "data": "0x4000aea00000000000000000000000008103b0a8a00be2ddc778e6e7eaa21791cd36462500000000000000000000000000000000000000000000000029a2241af62c0000000000000000000000000000000000000000000000000000000000000000006000000000000000000000000000000000000000000000000000000000000000200000000000000000000000000000000000000000000000000000000000002af2",
        "nonce": "0x13",
        "accessList": []
      },
      "additionalContracts": [],
      "isFixedGasLimit": false
    }
  ],
  "receipts": [
    {
      "transactionHash": "0xe5b22bf634a4ef544661ce3c5b7443066d768c27312cff196bc7d18be8586808",
      "transactionIndex": "0x3",
      "blockHash": "0xbaf1f59320dc4762748b8cd94a817c974759fbad0bf3f68a95dcc5fbc1de748f",
      "blockNumber": "0x56d8da",
      "from": "0x2B511131737b9100385421527FFfb20C373fa6b4",
      "to": "0x779877A7B0D9E8603169DdbD7836e478b4624789",
      "cumulativeGasUsed": "0x2bda3",
      "gasUsed": "0xe77e",
      "contractAddress": null,
      "logs": [
        {
          "address": "0x779877A7B0D9E8603169DdbD7836e478b4624789",
          "topics": [
            "0xddf252ad1be2c89b69c2b068fc378daa952ba7f163c4a11628f55a4df523b3ef",
            "0x0000000000000000000000002b511131737b9100385421527fffb20c373fa6b4",
            "0x0000000000000000000000008103b0a8a00be2ddc778e6e7eaa21791cd364625"
          ],
          "data": "0x00000000000000000000000000000000000000000000000029a2241af62c0000",
          "blockHash": "0xbaf1f59320dc4762748b8cd94a817c974759fbad0bf3f68a95dcc5fbc1de748f",
          "blockNumber": "0x56d8da",
          "transactionHash": "0xe5b22bf634a4ef544661ce3c5b7443066d768c27312cff196bc7d18be8586808",
          "transactionIndex": "0x3",
          "logIndex": "0x3",
          "removed": false
        },
        {
          "address": "0x779877A7B0D9E8603169DdbD7836e478b4624789",
          "topics": [
            "0xe19260aff97b920c7df27010903aeb9c8d2be5d310a2c67824cf3f15396e4c16",
            "0x0000000000000000000000002b511131737b9100385421527fffb20c373fa6b4",
            "0x0000000000000000000000008103b0a8a00be2ddc778e6e7eaa21791cd364625"
          ],
          "data": "0x00000000000000000000000000000000000000000000000029a2241af62c0000000000000000000000000000000000000000000000000000000000000000004000000000000000000000000000000000000000000000000000000000000000200000000000000000000000000000000000000000000000000000000000002af2",
          "blockHash": "0xbaf1f59320dc4762748b8cd94a817c974759fbad0bf3f68a95dcc5fbc1de748f",
          "blockNumber": "0x56d8da",
          "transactionHash": "0xe5b22bf634a4ef544661ce3c5b7443066d768c27312cff196bc7d18be8586808",
          "transactionIndex": "0x3",
          "logIndex": "0x4",
          "removed": false
        },
        {
          "address": "0x8103B0A8A00be2DDC778e6e7eaa21791Cd364625",
          "topics": [
            "0xd39ec07f4e209f627a4c427971473820dc129761ba28de8906bd56f57101d4f8",
            "0x0000000000000000000000000000000000000000000000000000000000002af2"
          ],
          "data": "0x00000000000000000000000000000000000000000000000029a2241af62c000000000000000000000000000000000000000000000000000053444835ec580000",
          "blockHash": "0xbaf1f59320dc4762748b8cd94a817c974759fbad0bf3f68a95dcc5fbc1de748f",
          "blockNumber": "0x56d8da",
          "transactionHash": "0xe5b22bf634a4ef544661ce3c5b7443066d768c27312cff196bc7d18be8586808",
          "transactionIndex": "0x3",
          "logIndex": "0x5",
          "removed": false
        }
      ],
      "status": "0x1",
      "logsBloom": "0x0000001400000000000000000000000000000000000000020000000002000000000000000000800000000000000000000000000000000000000000000000000000000000000000000000000800000000000000000000000000002000000000000000000000000000000000000000000000000000400000000000001000000000000000000c000020040000000000800010000020000000000000000000000000000000000000000000000000000000000000000000000000000400000000000000000002000000000800001000000000800000000000000100000400000000000000000000000000000000000200000000000000000000000000000000000000",
      "type": "0x2",
      "effectiveGasPrice": "0xb2d7b983"
    }
  ],
  "libraries": [],
  "pending": [],
  "returns": {},
  "timestamp": 1713041620,
  "chain": 11155111,
  "commit": "4b0ea88"
}